{
	"data": {
		"bytecode": {
			"linkReferences": {},
			"object": "608060405234801561000f575f80fd5b506101d28061001d5f395ff3fe608060405234801561000f575f80fd5b5060043610610029575f3560e01c8063a92100cb1461002d575b5f80fd5b61003561004b565b60405161004291906100dc565b60405180910390f35b5f805f90505f600190505b6005811161007f57808261006a9190610122565b9150808061007790610155565b915050610056565b505f80600190505b600581116100b057808261009b9190610122565b915080806100a890610155565b915050610087565b81836100bc9190610122565b935050505090565b5f819050919050565b6100d6816100c4565b82525050565b5f6020820190506100ef5f8301846100cd565b92915050565b7f4e487b71000000000000000000000000000000000000000000000000000000005f52601160045260245ffd5b5f61012c826100c4565b9150610137836100c4565b925082820190508082111561014f5761014e6100f5565b5b92915050565b5f61015f826100c4565b91507fffffffffffffffffffffffffffffffffffffffffffffffffffffffffffffffff8203610191576101906100f5565b5b60018201905091905056fea26469706673582212204f0c1594d77c7e8c6bad281218d49db9fe0f4e50b8d9dbbc5ef49f3ca1cf069764736f6c63430008160033",
			"opcodes": "PUSH1 0x80 PUSH1 0x40 MSTORE CALLVALUE DUP1 ISZERO PUSH2 0xF JUMPI PUSH0 DUP1 REVERT JUMPDEST POP PUSH2 0x1D2 DUP1 PUSH2 0x1D PUSH0 CODECOPY PUSH0 RETURN INVALID PUSH1 0x80 PUSH1 0x40 MSTORE CALLVALUE DUP1 ISZERO PUSH2 0xF JUMPI PUSH0 DUP1 REVERT JUMPDEST POP PUSH1 0x4 CALLDATASIZE LT PUSH2 0x29 JUMPI PUSH0 CALLDATALOAD PUSH1 0xE0 SHR DUP1 PUSH4 0xA92100CB EQ PUSH2 0x2D JUMPI JUMPDEST PUSH0 DUP1 REVERT JUMPDEST PUSH2 0x35 PUSH2 0x4B JUMP JUMPDEST PUSH1 0x40 MLOAD PUSH2 0x42 SWAP2 SWAP1 PUSH2 0xDC JUMP JUMPDEST PUSH1 0x40 MLOAD DUP1 SWAP2 SUB SWAP1 RETURN JUMPDEST PUSH0 DUP1 PUSH0 SWAP1 POP PUSH0 PUSH1 0x1 SWAP1 POP JUMPDEST PUSH1 0x5 DUP2 GT PUSH2 0x7F JUMPI DUP1 DUP3 PUSH2 0x6A SWAP2 SWAP1 PUSH2 0x122 JUMP JUMPDEST SWAP2 POP DUP1 DUP1 PUSH2 0x77 SWAP1 PUSH2 0x155 JUMP JUMPDEST SWAP2 POP POP PUSH2 0x56 JUMP JUMPDEST POP PUSH0 DUP1 PUSH1 0x1 SWAP1 POP JUMPDEST PUSH1 0x5 DUP2 GT PUSH2 0xB0 JUMPI DUP1 DUP3 PUSH2 0x9B SWAP2 SWAP1 PUSH2 0x122 JUMP JUMPDEST SWAP2 POP DUP1 DUP1 PUSH2 0xA8 SWAP1 PUSH2 0x155 JUMP JUMPDEST SWAP2 POP POP PUSH2 0x87 JUMP JUMPDEST DUP2 DUP4 PUSH2 0xBC SWAP2 SWAP1 PUSH2 0x122 JUMP JUMPDEST SWAP4 POP POP POP POP SWAP1 JUMP JUMPDEST PUSH0 DUP2 SWAP1 POP SWAP2 SWAP1 POP JUMP JUMPDEST PUSH2 0xD6 DUP2 PUSH2 0xC4 JUMP JUMPDEST DUP3 MSTORE POP POP JUMP JUMPDEST PUSH0 PUSH1 0x20 DUP3 ADD SWAP1 POP PUSH2 0xEF PUSH0 DUP4 ADD DUP5 PUSH2 0xCD JUMP JUMPDEST SWAP3 SWAP2 POP POP JUMP JUMPDEST PUSH32 0x4E487B7100000000000000000000000000000000000000000000000000000000 PUSH0 MSTORE PUSH1 0x11 PUSH1 0x4 MSTORE PUSH1 0x24 PUSH0 REVERT JUMPDEST PUSH0 PUSH2 0x12C DUP3 PUSH2 0xC4 JUMP JUMPDEST SWAP2 POP PUSH2 0x137 DUP4 PUSH2 0xC4 JUMP JUMPDEST SWAP3 POP DUP3 DUP3 ADD SWAP1 POP DUP1 DUP3 GT ISZERO PUSH2 0x14F JUMPI PUSH2 0x14E PUSH2 0xF5 JUMP JUMPDEST JUMPDEST SWAP3 SWAP2 POP POP JUMP JUMPDEST PUSH0 PUSH2 0x15F DUP3 PUSH2 0xC4 JUMP JUMPDEST SWAP2 POP PUSH32 0xFFFFFFFFFFFFFFFFFFFFFFFFFFFFFFFFFFFFFFFFFFFFFFFFFFFFFFFFFFFFFFFF DUP3 SUB PUSH2 0x191 JUMPI PUSH2 0x190 PUSH2 0xF5 JUMP JUMPDEST JUMPDEST PUSH1 0x1 DUP3 ADD SWAP1 POP SWAP2 SWAP1 POP JUMP INVALID LOG2 PUSH5 0x6970667358 0x22 SLT KECCAK256 0x4F 0xC ISZERO SWAP5 0xD7 PUSH29 0x7E8C6BAD281218D49DB9FE0F4E50B8D9DBBC5EF49F3CA1CF069764736F PUSH13 0x63430008160033000000000000 "
		},
		"gasEstimates": {
			"creation": {
				"codeDepositCost": "93200",
				"executionCost": "139",
				"totalCost": "93339"
			},
			"external": {
				"loop()": "infinite"
			}
		},
		"methodIdentifiers": {
			"loop()": "a92100cb"
		}
	},
	"abi": [
		{
			"inputs": [],
			"name": "loop",
			"outputs": [
				{
					"internalType": "uint256",
					"name": "",
					"type": "uint256"
				}
			],
			"stateMutability": "pure",
			"type": "function"
		}
	]
}